:100000000C94E7000C947A030C9453030C942C0387
:100010000C9405030C940F010C940F010C94DE0258
:100020000C940F010C940F010C94A1030C940A047E
:100030000C940F010C940F010C940F010C940F0100
:100040000C940F010C940F010C940F010C940F01F0
:100050000C940F010C940F010C940F010C942F0BB6
:100060000C940F010C940F010C940F010C940F01D0
:100070000C940F010C940F010C940F010C940F01C0
:100080000C940F010C940F010C940F010C940F01B0
:100090000C940F010C940F010C940F010C940F01A0
:1000A0000C940F010C940F010C940F019109940909
:1000B000830987098D09B509B509B50998099C090E
:1000C000A009A609AA09B509B00907060504010097
:1000D000080A0B0C0D09080B0002020201000904BA
:1000E00000000102020000052400100105240101A6
:1000F00001042402060524060001070581031000FF
:100100004009040100020A00000007050202400045
:1001100000070583024000000403090412010002E5
:10012000EF0201409A230C800001010203014164A7
:100130006166727569740046656174686572203322
:1001400032753400000000002300260029002C0036
:100150002F0000000000240027002A002D0030009E
:1001600000000000250028002B002E0031000404B0
:100170000404040304050202020204030202020250
:100180000606060606060404020202040404080227
:10019000011040804010204080408008020401800F
:1001A000402010020110801020404020000000027A
:1001B00000090F0000030401000C00000000000013
:1001C000000000000000000000000000D210112418
:1001D0001FBECFEFDAE0DEBFCDBF11E0A0E0B1E09F
:1001E000E2E8F9E202C005900D92A238B107D9F712
:1001F00022E0A2E8B1E001C01D92AD38B207E1F7FC
:1002000010E0C7EED0E004C02197FE010E948C11DF
:10021000C63ED107C9F70E94790B0C94BF140C9409
:100220000000089540918701509188012091850137
:100230003091860142175307B4F49091E80095700D
:10024000E1F39091E80092FD19C08093F100809154
:1002500087019091880101968F739927892B19F452
:100260008EEF8093E800809187019091880101963C
:10027000909388018093870181E0089580E008953C
:10028000DF92EF92FF920F931F93CF93DF93D82EBD
:10029000F92EE42E062F10E0C8010196880F0E9467
:1002A000120183E00E941201CD2DDF2D0C0F1D1FC6
:1002B000C017D10789F0E7FE03C0FE01849101C099
:1002C00088810E941201F82E80E00E9412018F2185
:1002D00021968111EDCF01C081E0DF91CF911F9177
:1002E0000F91FF90EF90DF900895DF92EF92FF92D1
:1002F0000F931F93CF93DF93D82E8A017B01E40ED7
:10030000F51EEB01CE15DF0571F0D7FE03C0FE012F
:10031000849101C088810E94120121968111F2CF3F
:100320008FEF9FEF01C0C801DF91CF911F910F9117
:10033000FF90EF90DF900895CF92DF92EF92FF92BF
:100340000F931F93CF93DF936C017A018B01C0E071
:10035000D0E0CE15DF0581F0D8016D918D01D60179
:10036000ED91FC910190F081E02DC6010995892B5A
:1003700011F02196EECF7E01C701DF91CF911F9141
:100380000F91FF90EF90DF90CF900895CF93DF9380
:100390001F92CDB7DEB76983DC01ED91FC9102803D
:1003A000F381E02D41E050E0BE016F5F7F4F099582
:1003B0000F90DF91CF91089583E08093E9008091C1
:1003C000F200882319F08AE38093E8000895FC0185
:1003D0008485958597FD0BC09FB7F89482E0809344
:1003E000E9008091F2009FBF90E0019608959FB7C9
:1003F000F89482E08093E9008091F2009FBF90E042
:100400000895089580E090E008950E94AC110F9344
:100410001F93CF93DF931F92CDB7DEB782E089831E
:1004200042E450E066ED70E080E80E9475010E94B1
:100430006509DC0112960D911C91139701151105A8
:1004400089F0D801ED91FC910280F381E02DBE018D
:100450006F5F7F4FC801099597FD04C0F8010085C3
:100460001185ECCF89810F90DF91CF911F910F9172
:1004700008958F929F92AF92BF92CF92DF92EF92A8
:10048000FF920F931F93CF93DF936C017B018A013F
:1004900080910B01882309F45BC080919701882328
:1004A00009F456C080918B0180FF05C08091E00067
:1004B00082608093E000E801B12C8AEFA82E93E0DF
:1004C000892E2AE3922E209711F4BB20D9F10E94A5
:1004D000540981110AC0AA94AA20D1F161E070E008
:1004E00080E090E00E94500AEECF282F30E0C21743
:1004F000D3070CF48C2F9FB7F8948092E9002091D9
:10050000E80025FF1DC0282F30E0C21BD30BF701E8
:10051000815020F041914093F100FACFE20EF31E9A
:10052000BB2019F09092E8000AC08091E80085FD98
:1005300007C09092E800BB24B394209709F0B12C37
:100540009FBFC1CF84E680938A011016110644F044
:1005500081E090E0F6019383828380E090E001C027
:10056000C801DF91CF911F910F91FF90EF90DF9025
:10057000CF90BF90AF909F908F9008950E945409A4
:1005800090E00895FC018485958597FD05C02FEFC7
:100590003FEF3587248708950C941B09CF93DF9391
:1005A000EC018C859D8597FF04C00E941B099D87E7
:1005B0008C878C859D85DF91CF9108951F920F9236
:1005C0000FB60F9211242F933F934F935F936F9326
:1005D0007F938F939F93AF93BF93EF93FF93E0919C
:1005E0001401F09115010995FF91EF91BF91AF9121
:1005F0009F918F917F916F915F914F913F912F913B
:100600000F900FBE0F901F9018951F920F920FB66C
:100610000F9211242F933F934F935F936F937F9388
:100620008F939F93AF93BF93EF93FF93E09112014A
:10063000F09113010995FF91EF91BF91AF919F91B7
:100640008F917F916F915F914F913F912F910F907B
:100650000FBE0F901F9018951F920F920FB60F921A
:1006600011242F933F934F935F936F937F938F93B7
:100670009F93AF93BF93EF93FF93E0911001F0919D
:1006800011010995FF91EF91BF91AF919F918F91CA
:100690007F916F915F914F913F912F910F900FBE7E
:1006A0000F901F9018951F920F920FB60F92112462
:1006B0002F933F934F935F936F937F938F939F936A
:1006C000AF93BF93EF93FF93E0910E01F0910F0171
:1006D0000995FF91EF91BF91AF919F918F917F917C
:1006E0006F915F914F913F912F910F900FBE0F909F
:1006F0001F9018951F920F920FB60F9211242F93EF
:100700003F934F935F936F937F938F939F93AF9399
:10071000BF93EF93FF93E0910C01F0910D010995C8
:10072000FF91EF91BF91AF919F918F917F916F91C9
:100730005F914F913F912F910F900FBE0F901F909F
:1007400018951F920F920FB60F9211248F939F93BB
:100750008091E1009091E100937F9093E10083FF0D
:100760000FC01092E90091E09093EB001092EC0022
:1007700092E39093ED001092970198E09093F0002F
:1007800082FF1CC093E09093E9009091F2009923BE
:1007900019F09AE39093E80090918A01992329F047
:1007A00090918A01915090938A019091960199239A
:1007B00029F09091960191509093960184FF10C07A
:1007C0008091E2008E7E81608093E2008091E10062
:1007D0008F7E8093E10080918B018E7E806111C0BD
:1007E00080FF11C08091E2008E7E80618093E200E4
:1007F0008091E1008E7E8093E10080918B018E7E5E
:10080000816080938B019F918F910F900FBE0F900D
:100810001F9018951F920F920FB60F921124CF922E
:10082000DF92EF92FF920F931F932F933F934F937B
:100830005F936F937F938F939F93AF93BF93EF9348
:10084000FF93CF93DF93CDB7DEB76C97DEBFCDBFFD
:100850001092E9008091E80083FF0BC289E0FE015D
:100860007596EE2EDF2E815029F09091F100908345
:100870003196F9CF84E68093960182EF8093E80069
:100880008D8987FF05C09091E80090FFFCCF03C0E1
:100890009EEF9093E800982F907609F0C5C09E894E
:1008A0004F89588D2F89F88C91110CC0803829F40C
:1008B00080918C018093F10002C01092F10010929F
:1008C000F1004BC1913051F4811147C141305105C4
:1008D00009F043C180918C018D7F0BC0933061F48E
:1008E00081113BC14130510509F037C180918C0124
:1008F000826080938C0131C1953049F48091E80089
:1009000080FFFCCF822F80688093E30026C1963061
:1009100009F05DC00B8D1C8D22E01092E900109251
:10092000880110928701F21232C010928601109253
:1009300085010E94070299E0BE016F5F7F4FDB01D6
:10094000E92F1D92EA95E9F79983FA8291E09E8357
:1009500090EA98879AEF99872091870130918801D2
:10096000275F3F4F3C832B838D831092E9001092C9
:10097000880110928701109386010093850149E058
:1009800050E080E00E9475010E940702E6C01093CB
:100990008601009385010E946509DC0112960D9184
:1009A0001C9113970115110509F4C1C0D801ED91EF
:1009B000FC910480F581E02D6E2D7D2DC8010995F7
:1009C000009709F0CEC0F80100851185EBCF973074
:1009D00009F44CC1983021F481E08093F100BDC04E
:1009E000993009F0BAC0837009F040C1E7E1F1E045
:1009F00081E031E096E32081211109C08EE78093E8
:100A0000EA001092EA008F8980939701A6C0809334
:100A1000E9003093EB0021912093EC009093ED00DE
:100A20008F5F873041F7EACF8B8D9C8D1092E90064
:100A3000109288011092870190938601809385011E
:100A4000898D81115BC08E899D89913A49F48132EB
:100A500009F00CC147E050E064E071E080E0C2C002
:100A6000913209F003C1833269F48F89988DA0E037
:100A7000B0E08093000190930101A0930201B09334
:100A800003016BC08032A9F48091E80082FFFCCFA3
:100A900088E0E4E0F1E0815029F09091F10090834A
:100AA0003196F9CF84E6809396018BEF8093E8002E
:100AB00054C0823209F051C08F8980930B01EEEF50
:100AC000FFE7859194918B3F9C4D19F0E0E0F8E0B1
:100AD00002C0EEEFFAE08091040190910501A0912F
:100AE0000601B0910701803B9440A105B10509F0D2
:100AF0009DC080910B0180FF78C098C00E9465095D
:100B0000FC01028113810115110509F4AFC0D80160
:100B1000ED91FC910190F081E02D6E2D7D2DC801AD
:100B2000099581111AC0F80100851185ECCFF1E01B
:100B3000FF1609F44EC0F3E0FF1298C08F89882396
:100B400009F44AC0823089F440E86CE087E391E020
:100B50000E944001882309F489C08EEF8093E80049
:100B600088C018161906CCF381C0813029F440E8FA
:100B700068E08EE291E0ECCF833009F077C00E940C
:100B80006509DC011296ED90FC9013978E010F5FC2
:100B90001F4F6801E114F10479F0D701ED91FC9148
:100BA0000680F781E02DB801C7010995080F111DD6
:100BB000F701E084F184EECFD8011C92F601019098
:100BC0000020E9F73197BF016C197D0940E0C601AB
:100BD000BFCF6CE171E002C068E171E0FB014491BC
:100BE00050E080E80E947501B8CFEE3F2AE0F2079E
:100BF00051F0808191818737A7E79A0721F0909380
:100C0000FF0A8093FE0A87E797E7918380838091AC
:100C10006000809389019BE088E10FB6F894A89565
:100C2000809360000FBE9093600097CF8081918188
:100C30008737974709F091CFA89580916000886128
:100C4000809360008091890180936000EE3FBAE05C
:100C5000FB0739F08091FE0A9091FF0A918380830F
:100C60007CCF1092FF0A1092FE0A77CF81E2809328
:100C7000EB006C960FB6F894DEBF0FBECDBFDF91D0
:100C8000CF91FF91EF91BF91AF919F918F917F9104
:100C90006F915F914F913F912F911F910F91FF9015
:100CA000EF90DF90CF900F900FBE0F901F90189590
:100CB0009FB7F894823069F030F4882399F081303E
:100CC00061F482E010C0833031F0843031F480E48C
:100CD0000AC084E008C088E006C082E080938401F6
:100CE00080E001C081E020918301822B8093830109
:100CF00080918401811103C081E0809384019FBFB2
:100D000008950F931F9340E150E000E010E0980138
:100D1000E5EDF0E0849190917B0083FB662760F91C
:100D200070E0DB0165E0AA0FBB1F6A95E1F79F7DCC
:100D3000A92BA0937B008770806480937C008091B6
:100D40007A00806480937A0080917A0086FDFCCFDF
:100D500080917800A091790090E09A2B092E000CE8
:100D6000AA0BBB0B080F191F2A1F3B1F415051092B
:100D700089F6A901980184E05695479537952795FE
:100D80008A95D1F7A2EDB3E30E94921120E038E2F8
:100D900040E050E00E946A11C9014B961F910F91EB
:100DA000089580E090E00E94120B80E00E94020A09
:100DB00060E086E00E94B60980916E02882319F0F7
:100DC0000E94960AF9CF64E670E080E090E00E940D
:100DD000500A0E948A0A60938D0170938E0180935D
:100DE0008F019093900161E086E00C94B6098091A8
:100DF0008401882361F09FB7F89420918401809149
:100E00008201213019F48DBB9FBF08958FBF0895D3
:100E10008EBD00000DB407FEFDCF8EB50895209164
:100E20008401222399F04FB7F89420918401213056
:100E300059F42DB3209382013DB320918301209575
:100E400023232DBB4FBF02C0409382018CBD9DBDAB
:100E500008950F931F93CF93DF93EC01162F042F68
:100E6000F894888199810E940F07EA81FB8160E0F4
:100E700080810E94B609812F80680E940807182F80
:100E8000802F0E940807EA81FB8161E080810E9437
:100E9000B6090E94F7067894812FDF91CF911F91B8
:100EA0000F9108951F93CF93DF93EC01162FF894C1
:100EB000888199810E940F07EA81FB8160E080812F
:100EC0000E94B609812F0E94080780E00E9408074F
:100ED000182FEA81FB8161E080810E94B6090E949F
:100EE000F7067894812FDF91CF911F910895CF93CA
:100EF000DF93C091E801D091E901209739F064E2D5
:100F0000CE010E945207869581958E83DF91CF9105
:100F100008950F931F93CF93DF93EC01162F072FA4
:100F200061E00E945207412F4C71837E482B61E0A3
:100F3000CE010E94290767E2CE010E94520787FF77
:100F4000FACF1C830D83DF91CF911F910F910895EC
:100F5000CF93DF93EC01FC01E05BFF4F81E090E079
:100F6000918380834FE961E1CE010E94290745E525
:100F70006AE5CE010E94290740E76CE5CE010E9498
:100F8000290740E465E2CE010E94290760E170E094
:100F9000CE01DF91CF910C948907FC01248135812A
:100FA0002430310541F0E05BFF4F1182108264E094
:100FB00070E00C9489070895CF92DF92FF920F930F
:100FC0001F93CF93DF93C091E801D091E90120975F
:100FD00009F459C068E2CE010E945207082F8C81A3
:100FE0009D818C309105E1F1409709F042C002FFEC
:100FF00037C0CE010E94CD0768E3CE010E945207A0
:10100000F82EF894888199810E940F07EA81FB816C
:1010100060E080810E94B60980E00E9408076E01AE
:1010200087E0C80ED11C1F2D112341F080E00E94E3
:101030000807F60181936F011150F6CFEA81FB8119
:1010400061E080810E94B6090E94F7067894FE0153
:10105000E35BFF4FF08282E090E0339691838083E0
:1010600003FF07C0CE010E94CD07FE01E15BFF4FE9
:101070001082CE01DF91CF911F910F91FF90DF90F1
:10108000CF900C94CD07DF91CF911F910F91FF90DE
:10109000DF90CF9008953FB7F894809175029091BA
:1010A0007602A0917702B091780226B5A89B05C080
:1010B0002F3F19F00196A11DB11D3FBFBA2FA92FD7
:1010C000982F8827820F911DA11DB11DBC01CD0154
:1010D00043E0660F771F881F991F4A95D1F708953F
:1010E0009B01AC018091640290916502A09166021F
:1010F000B091670282179307A407B50771F1209397
:101100006402309365024093660250936702211592
:1011100031054105510531F48E982E98469810926C
:10112000C10008958E9A1092BF0060E472E48FE0CF
:1011300090E00E946A112093D1008AE08093D00051
:101140008091D1008B508093CF0083E58093C000C5
:1011500084E08093C1001092C3000895CF93DF9381
:10116000EC014CE667E00E94290740E868E0CE0108
:101170000E94290740E069E0CE01DF91CF910C94F5
:101180002907E82FF0E0EE0FFF1FE45FFE4F7183A9
:1011900060838230C9F028F4882341F0813069F0FF
:1011A00008958330C1F08430E9F00895809169009A
:1011B000836080936900E89A0895809169008C604B
:1011C00080936900E99A0895809169008063809313
:1011D0006900EA9A089580916900806C80936900A3
:1011E000EB9A089580916A00806380936A00EE9A7A
:1011F0000895CF93DF93009779F0FC0101900020D0
:10120000E9F73197AF01481B590BBC0188E991E020
:101210000E943902EC0102C0C0E0D0E042E050E0A0
:101220006FE771E088E991E00E9439028C0F9D1F01
:10123000DF91CF910895CF93DF931F92CDB7DEB7A3
:1012400080919701811103C08FEF9FEF29C03FB7B5
:10125000F89482E08093E9008091F20090E0181603
:10126000190614F481E090E0282FFE01319644E63F
:10127000215030F0409396015091F1005193F8CFF6
:10128000009721F02091F200222331F03FBF019717
:10129000D9F6898190E004C02BE62093E800F6CFD0
:1012A0000F90DF91CF9108952FB7F89483E080934A
:1012B000E9009091E800892F807295FF04C0909119
:1012C000F20080E4891B2FBF089580917D02811177
:1012D0000DC082E08093790284E080937A021092BC
:1012E0007C0210927B0281E080937D0289E792E08C
:1012F000089590E0FC013197EF30F105B0F5EA5A1E
:10130000FF4F0C948C11809180008F7703C08091E7
:1013100080008F7D80938000089580918000877F7A
:10132000F9CF84B58F7702C084B58F7D84BD0895D1
:10133000809190008F7707C0809190008F7D03C0CF
:1013400080919000877F8093900008958091C000E5
:101350008F7703C08091C0008F7D8093C000089577
:101360008091C200877F8093C20008951F93CF931E
:10137000DF93282F30E0F901E455FE4F8491F90105
:10138000E357FE4FD491F901E259FE4FC491CC23AB
:10139000C1F0162F81110E947909EC2FF0E0EE0FB9
:1013A000FF1FE05AFE4FA591B4919FB7F894111119
:1013B00004C08C91D095D82302C0EC91DE2BDC9335
:1013C0009FBFDF91CF911F910895CF93DF93EC01E1
:1013D000880F991FFC01E15DFE4F662311F061E06B
:1013E00001C060E080810E94B609CC0FDD1FCC0FE8
:1013F000DD1FCE5BDD4F188219821A821B82DF91BE
:10140000CF9108951F93CF93DF93182FC0E0D0E0C2
:10141000612FCE010E94E5092196C430D105C1F7A4
:10142000DF91CF911F910895CF93DF9390E0FC015E
:10143000E357FE4F2491FC01E259FE4F849188232B
:1014400061F190E0880F991FFC01EE5AFE4FC591A3
:10145000D491FC01E05AFE4FA591B491611109C0ED
:101460009FB7F8948881209582238883EC912E235E
:101470000BC0623061F49FB7F8948881322F3095A9
:1014800083238883EC912E2B2C939FBF06C08FB7AC
:10149000F894E8812E2B28838FBFDF91CF91089598
:1014A0008F929F92AF92BF92CF92DF92EF92FF9274
:1014B0006B017C010E944B084B015C01C114D104FB
:1014C000E104F104F1F00E944B08DC01CB01881922
:1014D0009909AA09BB09883E9340A105B10570F39B
:1014E00021E0C21AD108E108F10888EE880E83E0F5
:1014F000981EA11CB11CC114D104E104F10419F718
:10150000DDCFFF90EF90DF90CF90BF90AF909F9096
:101510008F9008952FB7F8946091710270917202C4
:1015200080917302909174022FBF08954F925F9241
:101530006F927F92AF92BF92CF92DF92EF92FF9223
:101540000F931F93CF93DF9387E3E82E81E0F82E6C
:1015500005E812E0B12CA12CC0E0D0E0CC24C3946B
:10156000D12CD7011496ED91FC911597808190E0D4
:1015700016960C9002C0959587950A94E2F780FF25
:1015800008C00E948A0AF801608371838283938372
:101590002CC00E948A0AD8014D905D906D907C907D
:1015A000DC01CB0184199509A609B7094F97A1055C
:1015B000B10538F0C6010C2E01C0880F0A94EAF775
:1015C000A82A0E948A0ADC01CB0184199509A60980
:1015D000B709893B9B40A105B10538F0C6010C2E27
:1015E00001C0880F0A94EAF7B82A219627E0E20E94
:1015F000F11C0C5F1F4FC230D10509F0B2CFA09291
:101600006E02B0926C02DF91CF911F910F91FF900B
:10161000EF90DF90CF90BF90AF907F906F905F90F2
:101620004F900895CF93DF93EC01909363028093E2
:1016300062020E948A0A6093680270936902809332
:101640006A0290936B02CD2B39F460E070E0CB011D
:10165000DF91CF910C947008DF91CF9108951F9284
:101660000F920FB60F9211242F933F938F939F9356
:10167000AF93BF938091710290917202A091730217
:10168000B09174023091700226E0230F2D3720F4C0
:101690000296A11DB11D05C029E8230F0396A11DC7
:1016A000B11D209370028093710290937202A093F7
:1016B0007302B09374028091750290917602A091AA
:1016C0007702B09178020196A11DB11D8093750239
:1016D00090937602A0937702B0937802BF91AF9176
:1016E0009F918F913F912F910F900FBE0F901F9060
:1016F0001895CF93DF93CDB7DEB7A8970FB6F894C0
:10170000DEBF0FBECDBF789484B5826084BD84B542
:10171000816084BD85B5826085BD85B5816085BDEC
:1017200080916E00816080936E00109281008091A4
:10173000810082608093810080918100816080932C
:101740008100809180008160809380008091910071
:1017500082608093910080919100816080939100DC
:10176000809190008160809390008091C10084609E
:101770008093C1008091C10082608093C1008091FC
:10178000C10081608093C1008091C300816080931B
:10179000C3008091C00082608093C0008091C2002D
:1017A00081608093C20080917A00846080937A0087
:1017B00080917A00826080937A0080917A008E7F97
:1017C00080937A0080917A00806880937A001092EA
:1017D000970110928C0110928B018091D70081604B
:1017E0008093D70080EA8093D80089B58F7E89BD29
:1017F00089B5826089BD09B400FEFDCF61E070E06B
:1018000080E090E00E94500A8091D8008F7C806137
:101810008093D8008091E000807F8093E0008091E9
:10182000E1008E7E8093E1008DE08093E20061E034
:1018300086E00E94140A61E086E00E94B60961E039
:1018400080E090E00E94E50980E090E00E94120BA9
:101850000E948A0A60938D0170938E0180938F019C
:10186000909390018FEF9FEF9093A5018093A40137
:1018700068EE73E080E090E00E94500A88E0809378
:101880003E0284E080933F0287E08093400282E042
:10189000809341020091EA011091EB0101151105BD
:1018A00009F4B1C0D8011296ED91FC911397F18023
:1018B00061E08F2D0E94140A60E08F2D0E94B6090E
:1018C0006AE070E080E090E00E94500A61E08F2DB5
:1018D0000E94B6096AE070E080E090E00E94500A41
:1018E00060E08F2D0E94B6096AE070E080E090E031
:1018F0000E94500AFFB6F89480919101811127C08F
:10190000EFE7F1E08491EEE9F1E09491E82FF0E067
:10191000EE0FFF1FEE5AFE4FA591B491EC91E92313
:1019200021F461E081E10E94B60961E081E10E9459
:10193000140A8CB580618CBD8CB580648CBD61E06F
:101940008FE00E94140A61E080E10E94140A8091F5
:1019500091018F5F80939101FFBED8011296ED91A6
:10196000FC911397F08061E08F2D0E94140A61E0D2
:101970008F2D0E94B609D8011296ED91FC91139714
:10198000F3808281882379F0813009F4C0C28230EB
:1019900009F4C0C2833009F4C0C2873009F0F5C32E
:1019A00034E0E32E02C052E0E52E60E00E94140A0B
:1019B0008E2D0E9458066CED77E08E2D0E94C10896
:1019C000FF2009F446C3B1E0FB1609F4E8C3E2E0E6
:1019D000FE1609F44DC3F3E0FF1609F44CC327E0EB
:1019E000F21609F44AC33FEFE31639F060E08F2D99
:1019F0000E94140A8FEF0E94580660E1C8010E94FD
:101A0000520781118CC26E0181E2C80ED11CB1E671
:101A10002B2EB1E03B2EDE0111965D01F3E89F2EE7
:101A2000A0E28A2EF0906E0280916D02F81619F0F5
:101A3000F0926D0201C0F12C0E9481068C01FF2002
:101A400009F49DC00E948A0A60938D0170938E01F3
:101A500080938F01909390010D32114008F480C063
:101A6000E2E0FE122DC0009162021091630260E07C
:101A700081E090E00E94E50960E082E090E00E9451
:101A8000E5090130110551F088F00230110509F027
:101A900076C080E090E00E94120B71C082E090E07E
:101AA0000E94120B61E082E090E007C081E090E0CC
:101AB0000E94120B61E081E090E00E94E5095FC0A6
:101AC000F1E0FF125CC080E090E00E94120B0E94E7
:101AD00081068C0180E00E94020A0F3E22E012077C
:101AE000F8F061E080E090E00E94E509003233E028
:101AF0001307B0F061E081E090E00E94E509023553
:101B000083E0180768F061E082E090E00E94E50958
:101B10000B36134028F061E083E090E00E94E50975
:101B200010916E0280916D02181719F010936D02DA
:101B300001C010E00E948A0A2B013C01012F0E9483
:101B40008A0ADC01CB0184199509A609B709883BEB
:101B50009B40A105B10580F4002309F494C20CC098
:101B6000F2E0FF120CC081E00E94020A6AEF70E00E
:101B700080E090E00E94500A80E00E94020A80917A
:101B8000620290916302892B59F460E081E090E059
:101B90000E94E50960E082E090E00E94E50930C023
:101BA0000E948A0A00918D0110918E0120918F016F
:101BB00030919001DC01CB01801B910BA20BB30B88
:101BC00081369A4EA105B105D8F080E090E00E94E0
:101BD000120B05E010E081E00E94020A64EF71E060
:101BE00080E090E00E94500A80E00E94020A64EFC8
:101BF00071E080E090E00E94500A0150110959F70D
:101C000080916C02813011F40E94D1060E948A0AF0
:101C100000918D0110918E0120918F0130919001E2
:101C2000DC01CB01801B910BA20BB30B813E9349CE
:101C3000A440B10510F00E94D1060E9481068C32AA
:101C4000914000F50E948A0A2B013C0180E00E942D
:101C5000020AC301B20120ED37E040E050E00E94EB
:101C60006A1121E06C3271408105910508F020E095
:101C7000622F80E090E00E94E50980E090E00E9401
:101C8000120B05C061E080E090E00E94E5098091C0
:101C90006202909163028130910561F038F0029701
:101CA00079F465E174E380E090E008C060E070E002
:101CB000CB0104C06AE07AE180E090E00E94700805
:101CC0000E94960A02E412E0EFE24E2EE1E05E2E60
:101CD000E12CF12CF80180819181A281B381892BC3
:101CE0008A2B8B2B09F43DC0D2012D913C913327D7
:101CF000F901E455FE4F8491F901E357FE4F6490DA
:101D0000F901E259FE4F7490772059F181110E9438
:101D10007909E72DF0E0EE0FFF1FEC5BFE4FA59178
:101D2000B491EC916E22E9F00E948A0AD801509693
:101D30002D913D914D915C915397DC01CB01821B1C
:101D4000930BA40BB50BF8012081318142815381A3
:101D5000281739074A075B0720F460E0C7010E9493
:101D6000E509BFEFEB1AFB0A0C5F1F4FE2E04E0ED6
:101D7000511CF4E0EF16F10409F0ACCFD601E8E015
:101D80001D92EA95E9F70091EA011091EB01F80143
:101D9000E05BFF4F8081918181309105A1F018F0C7
:101DA000029729F13BC0D80116969C92169714967B
:101DB0008D919C911597409719F0C8010E94A80732
:101DC000E12CF12C3AC067E2C8010E94520787FF5C
:101DD000F7CF64E2C8010E94520786958195823F41
:101DE0007CF7F801968198175CF78683E9CFF801B4
:101DF000E35BFF4F8081882389F0893018F4E82E57
:101E0000F12C03C068E0E62EF12C1082A701B80186
:101E1000695F7F4FC6010E94BE1102C0E12CF12C08
:101E2000D80116969C92169714968D919C911597B1
:101E3000409719F0C8010E94A807EF2809F45FC075
:101E400080916202909163028130910509F02DC169
:101E50008DA1803509F073C18EA1853509F06FC160
:101E600044E050E0B60182E991E00E94B111892B73
:101E700009F445C089A19AA1ABA1BCA180939201AC
:101E800090939301A0939401B093950180E090E02A
:101E90000E94120B8CA11F928F938BA11F928F9384
:101EA0008AA11F928F9389A11F928F93E5E4F1E09D
:101EB000FF93EF931F928F92BF92AF920E94C71130
:101EC000C5010E94F9080FB6F894DEBF0FBECDBF62
:101ED00005E010E081E00E94020A6DE770E080E01A
:101EE00090E00E94500A80E00E94020A6DE770E0D4
:101EF00080E090E00E94500A0150110959F7A0E0DB
:101F0000B0E0AB2B09F48ECD0E94000087CD43E0FA
:101F1000E42E4BCDEE24E39448CDE12C46CD8F3F0B
:101F200009F471CDC8010E94CD074FE86CE3C801E8
:101F30000E94290740E36FE6C8010E942907C801F3
:101F40000E94AE0840E062E0C8010E94290745E017
:101F500063E0C8010E94290740E064E0C8010E94D4
:101F6000290741E065E0C8010E9429074AE966E0C7
:101F7000C8010E9429074CEE69E1C8010E942907A7
:101F80004CEE6AE1C8010E94290740E067E3C801FE
:101F90000E94290740E06CE2C8010E94290742E044
:101FA0006DE2C8010E9429076EE2C8010E94520733
:101FB000F82EF894F801808191810E940F07D801D2
:101FC0001296ED91FC91139760E080810E94B60912
:101FD0008FEA0E94080783ED0E94080781E90E94AA
:101FE0000807D8011296ED91FC91139761E080816A
:101FF0000E94B6090E94F70678944F2D477C4868E6
:102000006EE2C8010E94290740E062E08091EA0187
:102010009091EB010E9429070091EA011091EB01D8
:102020004BEE69E1C8010E9429074BEE6AE1C80145
:102030000E9429078091EA019091EB010E94AE086D
:1020400046E068E38091EA019091EB010E94290744
:10205000DACC22E0D22E60E08F2D0E94140A8D2D62
:102060000E94580667E777E08D2D0E94C108C5CC15
:10207000DD24D39404C0D12C02C094E0D92EBFEF4C
:10208000EB12E9CFBACC6EE170E080E090E00E9404
:10209000500A0E94960A10916E0280916D021817E4
:1020A00009F44DCD10936D0249CD029709F047C058
:1020B0008DA1803509F043C08EA1843409F03FC062
:1020C000E2E9F1E0DF0124E01D922A95E9F780E0E2
:1020D00090E00E94120B8CA11F928F938BA11F92F4
:1020E0008F938AA11F928F9389A11F928F933F9202
:1020F0002F921F928F92BF92AF920E94C711C5017B
:102100000E94F9080FB6F894DEBF0FBECDBF03E002
:1021100010E081E00E94020A64EF71E080E090E04C
:102120000E94500A80E00E94020A64EF71E080E0A1
:1021300090E00E94500A0150110959F7E0CE44E0A6
:1021400050E0B60182E991E00E94B111892B09F0BB
:10215000D6CE61E083E090E00E94E5090E948A0A01
:1021600060935E0270935F028093600290936102BD
:102170008AEF90E0A0E0B0E080934E0290934F028F
:10218000A0935002B0935102BACEFF2009F435CC8F
:10219000F1E0FF1609F431CCEE24EA9418CC83E088
:1021A000D82E59CF0F931F93CF93DF9310929B019B
:1021B00010929A0188EE93E0A0E0B0E080939C0139
:1021C00090939D01A0939E01B0939F0181E291E0C5
:1021D00090939901809398018FEF9FEF9093A501C1
:1021E0008093A40180933E0280933F02809340023B
:1021F0008093410280E58093EC0181E08093ED01C2
:102200008EE392E09093EF018093EE011092F10142
:102210001092F00183E88093F201E3EFF1E0119274
:1022200082E0E933F807D9F78CEE91E01092390299
:1022300010923A0210923B0210923D0210923C0220
:102240009093E9018093E8019093EB018093EA0178
:102250000FE211E0C0E0D0E0F80180810E5F1F4F77
:1022600061E00E94140A60E0CE010E94E509219617
:10227000C430D10589F7269A3E9A869A1092630255
:102280001092620260E070E0CB010E9470085598E5
:102290005D9A0E948A0A60938502709386028093F9
:1022A00087029093880252985A9A0E948A0A6093F1
:1022B000890270938A0280938B0290938C02109211
:1022C0006E0210926D0210926C02DF91CF911F91FD
:1022D0000F910895A1E21A2EAA1BBB1BFD010DC090
:1022E000AA1FBB1FEE1FFF1FA217B307E407F507C6
:1022F00020F0A21BB30BE40BF50B661F771F881FA2
:10230000991F1A9469F760957095809590959B0137
:10231000AC01BD01CF010895EE0FFF1F0590F491B0
:10232000E02D09940E949D11A59F900DB49F900DE2
:10233000A49F800D911D11240895A29FB001B39F09
:10234000C001A39F700D811D1124911DB29F700DBE
:10235000811D1124911D089581E090E0F8940C9462
:10236000BF14FB01DC0104C08D910190801921F4A0
:1023700041505040C8F7881B990B0895FB01DC01C0
:1023800002C001900D9241505040D8F70895AEE040
:10239000B0E0EDECF1E10C9496140D891E898F8963
:1023A000988D26E02C831A83098397FF02C080E072
:1023B00090E801979E838D83AE01455E5F4F698DE6
:1023C0007A8DCE0101960E94F7114D815E8157FDF5
:1023D0000AC02F813885421753070CF49A01F8017F
:1023E000E20FF31F10822E96E4E00C94B214ABE0DF
:1023F000B0E0EDEFF1E10C9488146C017B018A01EF
:10240000FC0117821682838181FFCCC1CE01019627
:102410003C01F6019381F70193FD859193FF819132
:102420007F01882309F4BAC1853239F493FD85917F
:1024300093FF81917F01853229F4B60190E00E94DB
:10244000EE13E7CF912C212C312CFFE1F315D8F0BE
:102450008B3279F038F4803279F08332A1F4232D75
:1024600020611DC08D3261F0803369F4232D21601D
:1024700016C0832D8260382EE32DE4603E2E2AC0E4
:10248000F32DF8601DC037FC2DC020ED280F2A3039
:1024900040F08E32B9F436FC81C1232D2064322EF7
:1024A00019C036FE06C08AE0989E200D1124922E97
:1024B00011C0EAE02E9E200D1124222EF32DF06291
:1024C0003F2E08C08C3621F4832D8068382E02C040
:1024D000883641F4F70193FD859193FF81917F0147
:1024E0008111B3CF982F9F7D9554933028F40C5FC2
:1024F0001F4F9FE399830DC0833631F0833771F00E
:10250000833509F059C021C0F801808189830E5FAD
:102510001F4F88248394912C530113C02801F2E0AB
:102520004F0E511CF801A080B18036FE03C0692D0A
:1025300070E002C06FEF7FEFC5010E94E3134C0112
:102540008201F32DFF773F2E16C0280122E0420EB4
:10255000511CF801A080B18036FE03C0692D70E0E7
:1025600002C06FEF7FEFC5010E94D8134C01F32D1D
:10257000F0683F2E820133FC1BC0822D90E088164C
:102580009906B0F4B60180E290E00E94EE132A941E
:10259000F4CFF50137FC859137FE81915F01B601DB
:1025A00090E00E94EE1321102A9421E0821A9108F3
:1025B0008114910471F7E8C0843611F0893641F531
:1025C000F80137FE07C060817181828193810C5FC1
:1025D0001F4F08C060817181072E000C880B990B7A
:1025E0000E5F1F4FF32DFF763F2E97FF09C090958A
:1025F0008095709561957F4F8F4F9F4FF0683F2E6C
:102600002AE030E0A3010E942A14882E861845C0D3
:10261000853731F4232D2F7EB22E2AE030E025C0FD
:10262000932D997FB92E8F36C1F018F4883579F043
:10263000B5C0803719F0883721F0B0C0E92FE061CC
:10264000BE2EB4FE0DC0FB2DF460BF2E09C034FEBB
:102650000AC0292F2660B22E06C028E030E005C04F
:1026600020E130E002C020E132E0F801B7FE07C00F
:1026700060817181828193810C5F1F4F06C06081F0
:10268000718180E090E00E5F1F4FA3010E942A1429
:10269000882E8618FB2DFF773F2E36FE0DC0232D8A
:1026A0002E7FA22E891458F434FE0BC032FC09C0D0
:1026B000832D8E7EA82E05C0B82CA32C03C0B82C69
:1026C00001C0B92CA4FE0FC0FE01E80DF11D8081F0
:1026D000803321F49A2D997EA92E09C0A2FE06C04E
:1026E000B394B39404C08A2D867809F0B394A3FC04
:1026F00011C0A0FE06C0B21488F4280C922C9B18BE
:102700000EC0B21460F4B60180E290E00E94EE13B5
:10271000B394F7CFB21418F42B1802C0982C212CC4
:10272000A4FE10C0B60180E390E00E94EE13A2FE6A
:1027300017C0A1FC03C088E790E002C088E590E0E4
:10274000B6010CC08A2D867859F0A1FE02C08BE23A
:1027500001C080E2A7FC8DE2B60190E00E94EE137A
:10276000891438F4B60180E390E00E94EE139A9445
:10277000F7CF8A94F301E80DF11D8081B60190E056
:102780000E94EE138110F5CF222009F442CEB6014B
:1027900080E290E00E94EE132A94F6CFF601868143
:1027A000978102C08FEF9FEF2B96E2E10C94A41467
:1027B000FC010590615070400110D8F7809590950C
:1027C0008E0F9F1F0895FC01615070400190011011
:1027D000D8F7809590958E0F9F1F08950F931F93A4
:1027E000CF93DF93FB01238121FD03C08FEF9FEF88
:1027F0002CC022FF16C046815781248135814217A3
:10280000530744F4A081B1819D012F5F3F4F318375
:1028100020838C93268137812F5F3F4F3783268318
:1028200014C08B01EC01FB010084F185E02D0995BA
:10283000892BE1F6D80116968D919C9117970196F8
:1028400017969C938E931697CE01DF91CF911F918F
:102850000F910895FA01AA27283051F1203181F112
:10286000E8946F936E7F6E5F7F4F8F4F9F4FAF4F98
:10287000B1E03ED0B4E03CD0670F781F891F9A1FAB
:10288000A11D680F791F8A1F911DA11D6A0F711D5F
:10289000811D911DA11D20D009F468943F912AE06B
:1028A000269F11243019305D3193DEF6CF01089553
:1028B000462F4770405D4193B3E00FD0C9F7F6CF84
:1028C000462F4F70405D4A3318F0495D31FD40524C
:1028D000419302D0A9F7EACFB4E0A69597958795E2
:1028E00077956795BA95C9F70097610571050895C1
:1028F0009B01AC010A2E069457954795379527956D
:10290000BA95C9F7620F731F841F951FA01D089504
:102910002F923F924F925F926F927F928F929F92EF
:10292000AF92BF92CF92DF92EF92FF920F931F93DD
:10293000CF93DF93CDB7DEB7CA1BDB0B0FB6F8948E
:10294000DEBF0FBECDBF09942A88398848885F84CE
:102950006E847D848C849B84AA84B984C884DF803F
:10296000EE80FD800C811B81AA81B981CE0FD11D23
:102970000FB6F894DEBF0FBECDBFED010895F894F9
:02298000FFCF87
:10298200FFFFFFFF00E10000000000001101110144
:1029920011011101110100C180810000000000003D
:1029A20000C6013902BE02DC01E701C202CE0217F3
:1029B200001600140012002A002B002900052A002C
:1029C2002B002900024163746976617465643A20C0
:1029D2002530325825303258253032582530325879
:1029E2000044656163746976617465643A202530D8
:1029F2003258253032582530325825303258000DA1
:022A02000A00C8
:00000001FF
